{
  "contractName": "DreamCyut",
  "abi": [
    {
      "anonymous": false,
      "inputs": [
        {
          "indexed": false,
          "internalType": "string",
          "name": "name",
          "type": "string"
        },
        {
          "indexed": false,
          "internalType": "string",
          "name": "sponsor",
          "type": "string"
        },
        {
          "indexed": false,
          "internalType": "string",
          "name": "teenager",
          "type": "string"
        },
        {
          "indexed": false,
          "internalType": "uint256",
          "name": "amount",
          "type": "uint256"
        }
      ],
      "name": "NewDonate",
      "type": "event"
    },
    {
      "anonymous": false,
      "inputs": [
        {
          "indexed": false,
          "internalType": "string",
          "name": "name",
          "type": "string"
        },
        {
          "indexed": false,
          "internalType": "string",
          "name": "teenager",
          "type": "string"
        }
      ],
      "name": "NewProject",
      "type": "event"
    },
    {
      "inputs": [],
      "name": "do_count",
      "outputs": [
        {
          "internalType": "uint256",
          "name": "",
          "type": "uint256"
        }
      ],
      "stateMutability": "view",
      "type": "function",
      "constant": true
    },
    {
      "inputs": [
        {
          "internalType": "uint256",
          "name": "",
          "type": "uint256"
        }
      ],
      "name": "donate_records",
      "outputs": [
        {
          "internalType": "uint256",
          "name": "id",
          "type": "uint256"
        },
        {
          "internalType": "string",
          "name": "pj_name",
          "type": "string"
        },
        {
          "internalType": "string",
          "name": "sponsor",
          "type": "string"
        },
        {
          "internalType": "string",
          "name": "teenager",
          "type": "string"
        },
        {
          "internalType": "uint256",
          "name": "amount",
          "type": "uint256"
        },
        {
          "internalType": "uint256",
          "name": "date",
          "type": "uint256"
        },
        {
          "internalType": "string",
          "name": "feeback",
          "type": "string"
        }
      ],
      "stateMutability": "view",
      "type": "function",
      "constant": true
    },
    {
      "inputs": [
        {
          "internalType": "string",
          "name": "",
          "type": "string"
        }
      ],
      "name": "projects",
      "outputs": [
        {
          "internalType": "string",
          "name": "pj_name",
          "type": "string"
        },
        {
          "internalType": "string",
          "name": "teenger",
          "type": "string"
        },
        {
          "internalType": "uint256",
          "name": "start_time",
          "type": "uint256"
        },
        {
          "internalType": "uint256",
          "name": "end_time",
          "type": "uint256"
        }
      ],
      "stateMutability": "view",
      "type": "function",
      "constant": true
    },
    {
      "inputs": [
        {
          "internalType": "string",
          "name": "",
          "type": "string"
        },
        {
          "internalType": "uint256",
          "name": "",
          "type": "uint256"
        }
      ],
      "name": "records",
      "outputs": [
        {
          "internalType": "uint256",
          "name": "id",
          "type": "uint256"
        },
        {
          "internalType": "string",
          "name": "pj_name",
          "type": "string"
        },
        {
          "internalType": "string",
          "name": "sponsor",
          "type": "string"
        },
        {
          "internalType": "string",
          "name": "teenager",
          "type": "string"
        },
        {
          "internalType": "uint256",
          "name": "amount",
          "type": "uint256"
        },
        {
          "internalType": "uint256",
          "name": "date",
          "type": "uint256"
        },
        {
          "internalType": "string",
          "name": "feeback",
          "type": "string"
        }
      ],
      "stateMutability": "view",
      "type": "function",
      "constant": true
    },
    {
      "inputs": [
        {
          "internalType": "string",
          "name": "pj_name",
          "type": "string"
        },
        {
          "internalType": "string",
          "name": "teenager",
          "type": "string"
        },
        {
          "internalType": "uint256",
          "name": "start_time",
          "type": "uint256"
        },
        {
          "internalType": "uint256",
          "name": "end_time",
          "type": "uint256"
        }
      ],
      "name": "create_project",
      "outputs": [],
      "stateMutability": "nonpayable",
      "type": "function"
    },
    {
      "inputs": [
        {
          "internalType": "string",
          "name": "pj_name",
          "type": "string"
        },
        {
          "internalType": "string",
          "name": "sponsor",
          "type": "string"
        },
        {
          "internalType": "string",
          "name": "teenager",
          "type": "string"
        },
        {
          "internalType": "uint256",
          "name": "amount",
          "type": "uint256"
        },
        {
          "internalType": "string",
          "name": "feeback",
          "type": "string"
        }
      ],
      "name": "donate",
      "outputs": [],
      "stateMutability": "nonpayable",
      "type": "function"
    },
    {
      "inputs": [
        {
          "internalType": "string",
          "name": "pj_name",
          "type": "string"
        }
      ],
      "name": "project_detail",
      "outputs": [
        {
          "components": [
            {
              "internalType": "string",
              "name": "pj_name",
              "type": "string"
            },
            {
              "internalType": "string",
              "name": "teenger",
              "type": "string"
            },
            {
              "internalType": "uint256",
              "name": "start_time",
              "type": "uint256"
            },
            {
              "internalType": "uint256",
              "name": "end_time",
              "type": "uint256"
            }
          ],
          "internalType": "struct DreamCyut.Project",
          "name": "",
          "type": "tuple"
        }
      ],
      "stateMutability": "view",
      "type": "function",
      "constant": true
    },
    {
      "inputs": [
        {
          "internalType": "string",
          "name": "pj_name",
          "type": "string"
        }
      ],
      "name": "get_do_record",
      "outputs": [
        {
          "components": [
            {
              "internalType": "uint256",
              "name": "id",
              "type": "uint256"
            },
            {
              "internalType": "string",
              "name": "pj_name",
              "type": "string"
            },
            {
              "internalType": "string",
              "name": "sponsor",
              "type": "string"
            },
            {
              "internalType": "string",
              "name": "teenager",
              "type": "string"
            },
            {
              "internalType": "uint256",
              "name": "amount",
              "type": "uint256"
            },
            {
              "internalType": "uint256",
              "name": "date",
              "type": "uint256"
            },
            {
              "internalType": "string",
              "name": "feeback",
              "type": "string"
            }
          ],
          "internalType": "struct DreamCyut.Donate_record[]",
          "name": "",
          "type": "tuple[]"
        }
      ],
      "stateMutability": "view",
      "type": "function",
      "constant": true
    },
    {
      "inputs": [],
      "name": "testCode",
      "outputs": [
        {
          "internalType": "string",
          "name": "",
          "type": "string"
        }
      ],
      "stateMutability": "pure",
      "type": "function",
      "constant": true
    }
  ],
  "bytecode": "0x6080604052600060015534801561001557600080fd5b50611ea0806100256000396000f3fe608060405234801561001057600080fd5b50600436106100935760003560e01c8063d6ff91d311610066578063d6ff91d31461014d578063dce6094414610169578063f293b97c14610187578063f94d94ea146101a5578063fc29aec5146101d557610093565b80633b51650d146100985780637d81f4f5146100ce57806391c9b268146100ea578063bc6570851461011d575b600080fd5b6100b260048036038101906100ad91906112c8565b61020b565b6040516100c597969594939291906113b2565b60405180910390f35b6100e860048036038101906100e3919061143d565b6104a0565b005b61010460048036038101906100ff9190611528565b610647565b6040516101149493929190611571565b60405180910390f35b61013760048036038101906101329190611528565b61079d565b6040516101449190611790565b60405180910390f35b610167600480360381019061016291906117b2565b610a80565b005b610171610b41565b60405161017e9190611851565b60405180910390f35b61018f610b7e565b60405161019c9190611873565b60405180910390f35b6101bf60048036038101906101ba9190611528565b610b84565b6040516101cc91906118f8565b60405180910390f35b6101ef60048036038101906101ea919061191a565b610cf4565b60405161020297969594939291906113b2565b60405180910390f35b600482805160208101820180518482526020830160208501208183528095505050505050818154811061023d57600080fd5b90600052602060002090600702016000915091505080600001549080600101805461026790611976565b80601f016020809104026020016040519081016040528092919081815260200182805461029390611976565b80156102e05780601f106102b5576101008083540402835291602001916102e0565b820191906000526020600020905b8154815290600101906020018083116102c357829003601f168201915b5050505050908060020180546102f590611976565b80601f016020809104026020016040519081016040528092919081815260200182805461032190611976565b801561036e5780601f106103435761010080835404028352916020019161036e565b820191906000526020600020905b81548152906001019060200180831161035157829003601f168201915b50505050509080600301805461038390611976565b80601f01602080910402602001604051908101604052809291908181526020018280546103af90611976565b80156103fc5780601f106103d1576101008083540402835291602001916103fc565b820191906000526020600020905b8154815290600101906020018083116103df57829003601f168201915b50505050509080600401549080600501549080600601805461041d90611976565b80601f016020809104026020016040519081016040528092919081815260200182805461044990611976565b80156104965780601f1061046b57610100808354040283529160200191610496565b820191906000526020600020905b81548152906001019060200180831161047957829003601f168201915b5050505050905087565b6004856040516104b091906119e3565b908152602001604051809103902060039080546104ce929190610f56565b5060006040518060e00160405280600154815260200187815260200186815260200185815260200184815260200142815260200183815250905060038190806001815401808255809150506001900390600052602060002090600702016000909190919091506000820151816000015560208201518160010190816105539190611ba6565b5060408201518160020190816105699190611ba6565b50606082015181600301908161057f9190611ba6565b506080820151816004015560a0820151816005015560c08201518160060190816105a99190611ba6565b50505060036004876040516105be91906119e3565b90815260200160405180910390209080546105da929190610f56565b50600360006105e99190611020565b60018060008282546105fb9190611ca7565b925050819055507ff0fc8592377c9c3e44734d3103acb3d1a7451499d32598da4c7cb2f8f4444929868686866040516106379493929190611cdb565b60405180910390a1505050505050565b60008180516020810182018051848252602083016020850120818352809550505050505060009150905080600001805461068090611976565b80601f01602080910402602001604051908101604052809291908181526020018280546106ac90611976565b80156106f95780601f106106ce576101008083540402835291602001916106f9565b820191906000526020600020905b8154815290600101906020018083116106dc57829003601f168201915b50505050509080600101805461070e90611976565b80601f016020809104026020016040519081016040528092919081815260200182805461073a90611976565b80156107875780601f1061075c57610100808354040283529160200191610787565b820191906000526020600020905b81548152906001019060200180831161076a57829003601f168201915b5050505050908060020154908060030154905084565b60606004826040516107af91906119e3565b9081526020016040518091039020805480602002602001604051908101604052809291908181526020016000905b82821015610a7557838290600052602060002090600702016040518060e00160405290816000820154815260200160018201805461081a90611976565b80601f016020809104026020016040519081016040528092919081815260200182805461084690611976565b80156108935780601f1061086857610100808354040283529160200191610893565b820191906000526020600020905b81548152906001019060200180831161087657829003601f168201915b505050505081526020016002820180546108ac90611976565b80601f01602080910402602001604051908101604052809291908181526020018280546108d890611976565b80156109255780601f106108fa57610100808354040283529160200191610925565b820191906000526020600020905b81548152906001019060200180831161090857829003601f168201915b5050505050815260200160038201805461093e90611976565b80601f016020809104026020016040519081016040528092919081815260200182805461096a90611976565b80156109b75780601f1061098c576101008083540402835291602001916109b7565b820191906000526020600020905b81548152906001019060200180831161099a57829003601f168201915b5050505050815260200160048201548152602001600582015481526020016006820180546109e490611976565b80601f0160208091040260200160405190810160405280929190818152602001828054610a1090611976565b8015610a5d5780601f10610a3257610100808354040283529160200191610a5d565b820191906000526020600020905b815481529060010190602001808311610a4057829003601f168201915b505050505081525050815260200190600101906107dd565b505050509050919050565b604051806080016040528085815260200184815260200183815260200182815250600085604051610ab191906119e3565b90815260200160405180910390206000820151816000019081610ad49190611ba6565b506020820151816001019081610aea9190611ba6565b5060408201518160020155606082015181600301559050507ff886d3cab6373b49d9edbe6b7355ba7c67416754b65d827fefe99c59d4c63b608484604051610b33929190611d35565b60405180910390a150505050565b60606040518060400160405280600881526020017f7375636365737321000000000000000000000000000000000000000000000000815250905090565b60015481565b610b8c611044565b600082604051610b9c91906119e3565b9081526020016040518091039020604051806080016040529081600082018054610bc590611976565b80601f0160208091040260200160405190810160405280929190818152602001828054610bf190611976565b8015610c3e5780601f10610c1357610100808354040283529160200191610c3e565b820191906000526020600020905b815481529060010190602001808311610c2157829003601f168201915b50505050508152602001600182018054610c5790611976565b80601f0160208091040260200160405190810160405280929190818152602001828054610c8390611976565b8015610cd05780601f10610ca557610100808354040283529160200191610cd0565b820191906000526020600020905b815481529060010190602001808311610cb357829003601f168201915b50505050508152602001600282015481526020016003820154815250509050919050565b6002602052806000526040600020600091509050806000015490806001018054610d1d90611976565b80601f0160208091040260200160405190810160405280929190818152602001828054610d4990611976565b8015610d965780601f10610d6b57610100808354040283529160200191610d96565b820191906000526020600020905b815481529060010190602001808311610d7957829003601f168201915b505050505090806002018054610dab90611976565b80601f0160208091040260200160405190810160405280929190818152602001828054610dd790611976565b8015610e245780601f10610df957610100808354040283529160200191610e24565b820191906000526020600020905b815481529060010190602001808311610e0757829003601f168201915b505050505090806003018054610e3990611976565b80601f0160208091040260200160405190810160405280929190818152602001828054610e6590611976565b8015610eb25780601f10610e8757610100808354040283529160200191610eb2565b820191906000526020600020905b815481529060010190602001808311610e9557829003601f168201915b505050505090806004015490806005015490806006018054610ed390611976565b80601f0160208091040260200160405190810160405280929190818152602001828054610eff90611976565b8015610f4c5780601f10610f2157610100808354040283529160200191610f4c565b820191906000526020600020905b815481529060010190602001808311610f2f57829003601f168201915b5050505050905087565b82805482825590600052602060002090600702810192821561100f5760005260206000209160070282015b8281111561100e5782826000820154816000015560018201816001019081610fa99190611d82565b5060028201816002019081610fbe9190611d82565b5060038201816003019081610fd39190611d82565b50600482015481600401556005820154816005015560068201816006019081610ffc9190611d82565b50505091600701919060070190610f81565b5b50905061101c919061106c565b5090565b5080546000825560070290600052602060002090810190611041919061106c565b50565b6040518060800160405280606081526020016060815260200160008152602001600081525090565b5b808211156110d75760008082016000905560018201600061108e91906110db565b60028201600061109e91906110db565b6003820160006110ae91906110db565b600482016000905560058201600090556006820160006110ce91906110db565b5060070161106d565b5090565b5080546110e790611976565b6000825580601f106110f95750611118565b601f016020900490600052602060002090810190611117919061111b565b5b50565b5b8082111561113457600081600090555060010161111c565b5090565b6000604051905090565b600080fd5b600080fd5b600080fd5b600080fd5b6000601f19601f8301169050919050565b7f4e487b7100000000000000000000000000000000000000000000000000000000600052604160045260246000fd5b61119f82611156565b810181811067ffffffffffffffff821117156111be576111bd611167565b5b80604052505050565b60006111d1611138565b90506111dd8282611196565b919050565b600067ffffffffffffffff8211156111fd576111fc611167565b5b61120682611156565b9050602081019050919050565b82818337600083830152505050565b6000611235611230846111e2565b6111c7565b90508281526020810184848401111561125157611250611151565b5b61125c848285611213565b509392505050565b600082601f8301126112795761127861114c565b5b8135611289848260208601611222565b91505092915050565b6000819050919050565b6112a581611292565b81146112b057600080fd5b50565b6000813590506112c28161129c565b92915050565b600080604083850312156112df576112de611142565b5b600083013567ffffffffffffffff8111156112fd576112fc611147565b5b61130985828601611264565b925050602061131a858286016112b3565b9150509250929050565b61132d81611292565b82525050565b600081519050919050565b600082825260208201905092915050565b60005b8381101561136d578082015181840152602081019050611352565b60008484015250505050565b600061138482611333565b61138e818561133e565b935061139e81856020860161134f565b6113a781611156565b840191505092915050565b600060e0820190506113c7600083018a611324565b81810360208301526113d98189611379565b905081810360408301526113ed8188611379565b905081810360608301526114018187611379565b90506114106080830186611324565b61141d60a0830185611324565b81810360c083015261142f8184611379565b905098975050505050505050565b600080600080600060a0868803121561145957611458611142565b5b600086013567ffffffffffffffff81111561147757611476611147565b5b61148388828901611264565b955050602086013567ffffffffffffffff8111156114a4576114a3611147565b5b6114b088828901611264565b945050604086013567ffffffffffffffff8111156114d1576114d0611147565b5b6114dd88828901611264565b93505060606114ee888289016112b3565b925050608086013567ffffffffffffffff81111561150f5761150e611147565b5b61151b88828901611264565b9150509295509295909350565b60006020828403121561153e5761153d611142565b5b600082013567ffffffffffffffff81111561155c5761155b611147565b5b61156884828501611264565b91505092915050565b6000608082019050818103600083015261158b8187611379565b9050818103602083015261159f8186611379565b90506115ae6040830185611324565b6115bb6060830184611324565b95945050505050565b600081519050919050565b600082825260208201905092915050565b6000819050602082019050919050565b6115f981611292565b82525050565b600082825260208201905092915050565b600061161b82611333565b61162581856115ff565b935061163581856020860161134f565b61163e81611156565b840191505092915050565b600060e08301600083015161166160008601826115f0565b50602083015184820360208601526116798282611610565b915050604083015184820360408601526116938282611610565b915050606083015184820360608601526116ad8282611610565b91505060808301516116c260808601826115f0565b5060a08301516116d560a08601826115f0565b5060c083015184820360c08601526116ed8282611610565b9150508091505092915050565b60006117068383611649565b905092915050565b6000602082019050919050565b6000611726826115c4565b61173081856115cf565b935083602082028501611742856115e0565b8060005b8581101561177e578484038952815161175f85826116fa565b945061176a8361170e565b925060208a01995050600181019050611746565b50829750879550505050505092915050565b600060208201905081810360008301526117aa818461171b565b905092915050565b600080600080608085870312156117cc576117cb611142565b5b600085013567ffffffffffffffff8111156117ea576117e9611147565b5b6117f687828801611264565b945050602085013567ffffffffffffffff81111561181757611816611147565b5b61182387828801611264565b9350506040611834878288016112b3565b9250506060611845878288016112b3565b91505092959194509250565b6000602082019050818103600083015261186b8184611379565b905092915050565b60006020820190506118886000830184611324565b92915050565b600060808301600083015184820360008601526118ab8282611610565b915050602083015184820360208601526118c58282611610565b91505060408301516118da60408601826115f0565b5060608301516118ed60608601826115f0565b508091505092915050565b60006020820190508181036000830152611912818461188e565b905092915050565b6000602082840312156119305761192f611142565b5b600061193e848285016112b3565b91505092915050565b7f4e487b7100000000000000000000000000000000000000000000000000000000600052602260045260246000fd5b6000600282049050600182168061198e57607f821691505b6020821081036119a1576119a0611947565b5b50919050565b600081905092915050565b60006119bd82611333565b6119c781856119a7565b93506119d781856020860161134f565b80840191505092915050565b60006119ef82846119b2565b915081905092915050565b60008190508160005260206000209050919050565b60006020601f8301049050919050565b600082821b905092915050565b600060088302611a5c7fffffffffffffffffffffffffffffffffffffffffffffffffffffffffffffffff82611a1f565b611a668683611a1f565b95508019841693508086168417925050509392505050565b6000819050919050565b6000611aa3611a9e611a9984611292565b611a7e565b611292565b9050919050565b6000819050919050565b611abd83611a88565b611ad1611ac982611aaa565b848454611a2c565b825550505050565b600090565b611ae6611ad9565b611af1818484611ab4565b505050565b5b81811015611b1557611b0a600082611ade565b600181019050611af7565b5050565b601f821115611b5a57611b2b816119fa565b611b3484611a0f565b81016020851015611b43578190505b611b57611b4f85611a0f565b830182611af6565b50505b505050565b600082821c905092915050565b6000611b7d60001984600802611b5f565b1980831691505092915050565b6000611b968383611b6c565b9150826002028217905092915050565b611baf82611333565b67ffffffffffffffff811115611bc857611bc7611167565b5b611bd28254611976565b611bdd828285611b19565b600060209050601f831160018114611c105760008415611bfe578287015190505b611c088582611b8a565b865550611c70565b601f198416611c1e866119fa565b60005b82811015611c4657848901518255600182019150602085019450602081019050611c21565b86831015611c635784890151611c5f601f891682611b6c565b8355505b6001600288020188555050505b505050505050565b7f4e487b7100000000000000000000000000000000000000000000000000000000600052601160045260246000fd5b6000611cb282611292565b9150611cbd83611292565b9250828201905080821115611cd557611cd4611c78565b5b92915050565b60006080820190508181036000830152611cf58187611379565b90508181036020830152611d098186611379565b90508181036040830152611d1d8185611379565b9050611d2c6060830184611324565b95945050505050565b60006040820190508181036000830152611d4f8185611379565b90508181036020830152611d638184611379565b90509392505050565b600081549050611d7b81611976565b9050919050565b818103611d90575050611e68565b611d9982611d6c565b67ffffffffffffffff811115611db257611db1611167565b5b611dbc8254611976565b611dc7828285611b19565b6000601f831160018114611df65760008415611de4578287015490505b611dee8582611b8a565b865550611e61565b601f198416611e04876119fa565b9650611e0f866119fa565b60005b82811015611e3757848901548255600182019150600185019450602081019050611e12565b86831015611e545784890154611e50601f891682611b6c565b8355505b6001600288020188555050505b5050505050505b56fea26469706673582212203936200c3de0cc11c96cd04bb5c1a021f7f51412838ada75b2cd2ffc333bd90d64736f6c63430008100033",
  "immutableReferences": {},
  "source": "// SPDX-License-Identifier: MIT\r\npragma solidity ^0.8.0;\r\n\r\n// ABI V2 \r\npragma experimental ABIEncoderV2;\r\n\r\n//\r\ncontract DreamCyut {\r\n    mapping (string => Project) public projects;\r\n\r\n    uint public do_count = 0;\r\n    \r\n    mapping (uint => Donate_record) public donate_records;\r\n\r\n    Donate_record[] pj_List;\r\n    mapping (string => Donate_record[]) public records;\r\n\r\n\r\n    event NewProject (string name, string teenager);\r\n    event NewDonate (string name, string sponsor, string teenager, uint amount);\r\n\r\n    struct Project {\r\n        string pj_name;\r\n        string teenger;\r\n        uint start_time;\r\n        uint end_time;\r\n    }\r\n\r\n    struct Donate_record {\r\n        uint id;\r\n        string pj_name;\r\n        string sponsor;\r\n        string teenager;\r\n        uint amount;\r\n        uint date;\r\n        string feeback;\r\n    }\r\n    //\r\n    function create_project(string memory pj_name, string memory teenager, uint start_time, uint end_time) public {\r\n        projects[pj_name] = Project(pj_name, teenager, start_time, end_time);\r\n        emit NewProject(pj_name, teenager);\r\n    }\r\n    //\r\n    function donate(string memory pj_name, string memory sponsor, string memory teenager, uint amount, string memory feeback) public {\r\n        pj_List = records[pj_name];\r\n        Donate_record memory  donate_record = Donate_record(do_count, pj_name, sponsor, teenager, amount, block.timestamp, feeback);\r\n        pj_List.push(donate_record);\r\n        records[pj_name] = pj_List;\r\n        delete pj_List;\r\n        do_count += 1;\r\n        emit NewDonate(pj_name, sponsor, teenager, amount);\r\n    }\r\n\r\n    function project_detail(string memory pj_name) public view returns(Project memory) {\r\n        return projects[pj_name];\r\n    }\r\n\r\n    function get_do_record(string memory pj_name) public view returns(Donate_record[] memory) {\r\n        return records[pj_name];\r\n    }\r\n    //\r\n    function testCode() public pure returns (string memory) {\r\n        return 'success!';\r\n    }\r\n\r\n    \r\n}\r\n",
  "sourcePath": "D:\\C-DISK\\Desktop\\CrowdfundingWeb\\workspace\\crowdfunding\\CrowdfundingDapp\\contracts\\DreamCyut.sol",
  "compiler": {
    "name": "solc",
    "version": "0.8.16+commit.07a7930e.Emscripten.clang"
  },
  "schemaVersion": "3.4.10",
  "updatedAt": "2022-09-21T04:16:33.424Z",
  "networkType": "ethereum",
  "devdoc": {
    "kind": "dev",
    "methods": {},
    "version": 1
  },
  "userdoc": {
    "kind": "user",
    "methods": {},
    "version": 1
  }
}